:100000000C945A000C946D000C946D000C946D00CF
:100010000C946D000C946D000C946D000C946D00AC
:100020000C946D000C946D000C946D000C946D009C
:100030000C946D000C946D000C946D000C946D008C
:100040000C946D000C946D000C946D000C946D007C
:100050000C946D000C946D000C946D000C946D006C
:100060000C946D000C946D000C946D000C946D005C
:100070000C946D000C946D000C946D000C946D004C
:100080000C946D000C946D000C946D000C946D003C
:100090000C946D000C946D000C946D000C946D002C
:1000A0000C946D000C946D000C946D000C946D001C
:1000B0000C946D0011241FBECFEFD8E0DEBFCDBF82
:0C00C0000E9466000C946400F894FFCFCE
:0E00CC0084B1806284B985B1806285B9FFCFAE
:0400DA000C94000082
:00000001FF
